:020000041000EA
:10000000002008205D0100101301001015010010F0
:100010001101001011010010110100101101001058
:100020001101001011010010110100101701001042
:100030001101001011010010190100101B01001026
:100040001D0100101D0100101D0100101D010010F8
:100050001D0100101D0100101D0100101D010010E8
:100060001D0100101D0100101D0100101D010010D8
:100070001D0100101D0100101D0100101D010010C8
:100080001D0100101D0100101D0100101D010010B8
:100090001D0100101D0100101D0100101D010010A8
:1000A0001D0100101D0100101D0100101D01001098
:1000B0001D0100101D0100101D0100101D01001088
:1000C0001D0100101D0100101D0100101D01001078
:1000D0001D0100101D0100101D0100101D01001068
:1000E0001D0100101D0100101D0100101D01001058
:1000F0001D0100101D0100101D0100101D01001048
:100100001D0100101D0100101D0100101D01001037
:1001100000BE00BE00BE00BE00BE00BEEFF3058004
:10012000103800BEF2EB887104D6041024D60410F7
:10013000A801001090A31AE7D3DEFFFF42012110AF
:10014000FF01000040DD0400793512AB4FF00000E4
:100150002049086006C881F3088810474FF05040D6
:10016000006810B14FF00000F2E70FA40ECC002998
:1001700002D000F015F8F9E71749184A002000E00E
:1001800001C19142FCD1002080F30A8814498847BC
:10019000144988471449884700BEFDE701C901C2D8
:1001A0009A42FBD3704700BF24D6041010010020F0
:1001B0006409002078DE04100000082000000820F8
:1001C00078DE041000100820001008200000000055
:1001D0007047000008ED00E064090020E0220220E2
:1001E000593900109903001051390010F8B500BFBB
:1001F000064B0749C91A891048BF0131491003D07D
:10020000044B0BB101481847704700BF6409002038
:10021000640900200000000008B5054B1BB105492A
:100220000548AFF30080BDE80840FFF7E1BF00BF1D
:100230000000000078220220342F041010B5044C76
:100240003F212279A06804F06BFA0123A37310BD4B
:10025000541F022030B5264C83B0657B012D18D089
:10026000A388FF2B0CD91F223F21A06804F058FA65
:10027000A288A3681F3A1F33A280A36003B030BDD9
:10028000217B0029EFD1082004F0ACF9012323736E
:10029000E9E703223F21A06804F042FA01A9002205
:1002A000A06803F075FD9DF80400207005F0C8FDFE
:1002B00005F0D6FDFF286080C1B24FF006000FD9CF
:1002C00004F090F90025A26863880332033B0721FC
:1002D0000320A260A380657304F084F903B030BDED
:1002E00004F080F90021082004F07CF92573E9E787
:1002F000541F022030B5224C224BD4F80200D4F80F
:100300000610B5B003C30822617B1846656842F049
:10031000DFFC6B46D4F81100D4F81510194A03C35A
:10032000B4F8191004A81980E17E9970D4F81E1051
:1003300094F82230CDF80B1013498DF80F3003F0EC
:10034000CBFD1022114C0DEB0200694603F0D6FDE7
:100350002A46E068019D0E4932F0E4FA6069002205
:1003600003210EF041FC2A4660690A4932F0DAFAAC
:100370000022032160690EF037FC35B030BD00BFAC
:10038000641F022018220220F00700209022022081
:10039000382F04103C2F0410F8B503F0C1FB04F013
:1003A000C3F804F0F5F9032005F050FB00F0CAF89B
:1003B000002006F067FD11F043FA314D00F062FABB
:1003C000304C314E314F2CE04FF480730320A38129
:1003D0002170C4F80210A173A66004F003F9022191
:1003E000082004F0FFF880213D2004F05FF910F0B0
:1003F000700F41D13A2004F02BF904221120244936
:1004000005F044FC03220420224905F03FFC34207F
:1004100004F01EF901232B7022F0C6FF052001F025
:100420002BFA29780029CFD0A37B002BF4D000230E
:1004300011202B7005F0B0FC042005F0ADFC8021EC
:100440003D2004F033F910F0700F15D1207805F03D
:10045000F7FC39460246304605F00AFD0028DBD19C
:100460003B781E2BD8D1BB78A52BD5D1FB78112B8F
:10047000D2D1FFF73FFFCFE7362004F0E9F8CBE712
:10048000DC220220541F02200C1D0220641F0220C7
:10049000550200103D0200104FF0A0420123074911
:1004A0000868D2F80C148340194200D170470449FF
:1004B000C2F80C34086811F077B900BF6822022036
:1004C000642202202DE9F041D1E9007808460D466A
:1004D00016461FF0FDFB044628461FF0FFFB00FBFD
:1004E00004F43046214614F079FF28461FF0F0FB53
:1004F0000246284615461FF0F1FB2A4603464146B0
:10050000384605F057FB2C2005F0ECF9074B084A5C
:100510001B68126807499B0103F1A04364001E6039
:1005200059609C60DA60BDE8F08100BF682202205B
:100530002C2202200880084008B5052029F03AFD49
:10054000012008BDF0B50024284E85B0012003F03D
:100550000FFC3168264B274A03EA413343F450131A
:1005600043F01103136001F0DFF8234A234BCDE978
:100570000142009341F28832002301F055FA1DF048
:100580001FFC4FF4A0714FF4F07010F05DFD1C4D96
:100590001C49286011F07AF8234612223C21F020F1
:1005A00012F036FC0346184F12223B603C212346D2
:1005B000F02012F02DFC39680246286810F0CAFFBE
:1005C00021460124286811F055F833680F4A04FACF
:1005D00003F30A200E49C2F8043400F0E5FB21467B
:1005E0000A2005B0BDE8F04000F0C8BB6822022038
:1005F000BDFF01FC2C220220000B00203905001059
:1006000064220220C504001028220220002000508D
:1006100099040010F0B5002087B006F033FC0022EA
:100620000546774E1146306007F080FD4FF4A0720A
:100630004FF4F071284607F0D5FD28462EF02EFC29
:10064000002204461146706007F070FD4FF4A0725E
:100650004FF4F071204607F0C5FD6A481FF03EFEDA
:1006600003468DF80430C3F30721C3F307438DF825
:1006700006308DF805102046019900220EF0A0F8F2
:100680002046002280210EF033FA2046002201216C
:100690000EF0F8F9002220465B490EF085FA20465C
:1006A00032F09CF8202205210746B06007F03EFD9D
:1006B0006FF040423846114607F094FD4FF0FF308E
:1006C0001FF00CFE03468DF80830C3F30721C3F377
:1006D00007438DF80A308DF8091000223846029938
:1006E0000EF044FA3846494932F084F8204632F098
:1006F00075F8202240F205110446F06007F016FD5F
:100700006FF040422046114607F06CFD4FF0FF307D
:100710001FF0E4FD03468DF80C30C3F30721C3F34B
:1007200007438DF80E308DF80D10204603990022F6
:100730000EF01CFA0022204633490EF035FA20460E
:10074000334932F057F8284632F048F85222112146
:100750000446306107F0EAFC6FF040422046114643
:1007600007F040FD4FF0FF301FF0B8FD03468DF855
:100770001030C3F30721C3F307438DF812308DF80F
:1007800011102046049900220EF0F0F900222046B4
:100790001D490EF009FA20461E4932F02BF8284672
:1007A00032F01CF8522240F211110446706107F039
:1007B000BDFC6FF040422046114607F013FD4FF09C
:1007C000FF301FF08BFD03468DF81430C3F3072173
:1007D000C3F307438DF816308DF8151020460599A0
:1007E00000220EF0C3F92046002207490EF0DCF982
:1007F0002046094907B0BDE8F04031F0FBBF00BF1B
:1008000090220220E71B46FF88700410402F04103E
:10081000542F04105C2F0410702F041010B584B0F6
:1008200010F09CFD0446052021F02EFB034600201D
:10083000C3F30721C3F307428DF808308DF8091080
:100840008DF80A2021F020FB0D4A00230092024679
:10085000C2F3072C8DF80C20C2F307428DF80DC0AF
:100860008DF80E200299039A204625F041FB01469F
:10087000204611F0E7FB04B0BDE81040FFF7CABE08
:100880003C3B041010B582B0FFF7C8FF0023054CB5
:100890000548C822006809210093238011F0C6F89A
:1008A00002B010BD00080020902202204FF05042FC
:1008B0002DE9F84F6D4BD2F800A053F82A70BAF129
:1008C000000F2CD0DFF8B0816FB30026DFF8A0B1A5
:1008D000DFF8A091F3080C3358F82350344608365B
:1008E000CDB105F00F0120462D09013489B15BF827
:1008F0002A2000F00703C2404FEAD00C9B00D20729
:1009000001FA03F30CF18C0C02D449F82C30B847EF
:100910000DB1B442E5D3202EDCD1BDE8F88FDFF86D
:100920005C81002FD1D15248F90801F10C0358F82D
:100930002330002B7BD013F00F054FEA13120AD09F
:1009400050F82A40FC40E60703D44A4C8C3144F866
:100950002150002A6BD012F00F024FEA13210DD064
:1009600050F82A407D1CEC40E40705D4EC08414DCA
:1009700012018C3445F82420002958D011F00F01C1
:100980004FEA133207D050F82A40BD1CEC40E6076E
:1009900057D5002A4BD012F00F024FEA134107D06F
:1009A00050F82A40FD1CEC40E40751D500293ED008
:1009B00011F00F014FEA135207D02D4C54F82A5072
:1009C0003C1DE540EE074AD58AB312F00F024FEA0C
:1009D00013610DD0264C54F82A507C1DE540ED07DC
:1009E00005D4244DE40812058C3445F82420F1B1D7
:1009F00011F00F014FEA13731FD01D4CBD1D54F8A9
:100A00002A20EA40D60705D4EA081A4D09068C3296
:100A100045F822105BB154F82A10FA1DD140C907DD
:100A200005D41449D2081B078C3241F8223008370C
:100A3000202F7FF479AFBDE8F88F002BF7D00C4C56
:100A4000E9E7EC080B4D09028C3445F82410A0E7C7
:100A5000EC08084D12038C3445F82420A6E7054D18
:100A6000E40809048C3445F82410ADE73022022054
:100A7000C822022000800240908202404882024048
:100A800010B44FF480740C4B53F8202003EB800318
:100A9000C00082F0400200F1804003F5805C02F06B
:100AA000C00200F5203003F54053CCF8002041602F
:100AB0001C605DF8044B7047048003404FF05043C6
:100AC0001B6893B10C4B4FEAD00C00F0070080007C
:100AD00081400A4803EB8C030CF18C0C40F82C107D
:100AE0002AB103F5005319607047054BEBE703F596
:100AF00040531960704700BF90820240008002405E
:100B0000488202402DE9F0434FF050491F46DFF87C
:100B10009880D9F80030164658F8232004460D4630
:100B200083B032B387B348F823704FF050431B684B
:100B3000BBB1194BE10804F00704184AA40005FAF8
:100B400004F403EB81038C3142F821405EB10121B2
:100B5000152003F500531C6003B0BDE8F04300F01E
:100B60000DB90F4BE6E703F540531C6003B0BDE839
:100B7000F083002FDCD015200A4948F8237000F0DC
:100B800043F9D9F80030D3E715200649019300F066
:100B90002FFA019BC7E700BF90820240008002400D
:100BA00048820240AD0800103022022030B44FF0DD
:100BB000000343EC440043EC400005254FF48074EF
:100BC0000B4BC20053F8201003EB800081F0400172
:100BD00002F1804303F5203301F0C00200F580519B
:100BE00000F540500A605D60046030BC704700BF93
:100BF000048003400FB400B583B0049C074802F0A2
:100C0000D3FF3CB105A92046019102F087FE0448BC
:100C100002F0CAFF012002F099FE00BF782F0410F5
:100C2000882F041070B58646EFF3108572B6124C0B
:100C3000D4E8CF6F0120002EFAD1C4E8460F002E71
:100C4000F6D1BFF35F8F4FF0010CC80801F0070326
:100C50000CFA03F31EF800C01CEA030608D14CEAA4
:100C6000030C0EF800C0C4E88F6F85F3108870BDC8
:100C70001046FFF7BFFF00BF03220220F8B5EFF3D5
:100C8000108772B61C4ED6E8CF5F0124002DFAD132
:100C9000C6E8454F002DF6D1BFF35F8F9A421BD8AF
:100CA000012502E00132934222D3D40810F804E077
:100CB00002F0070C05FA0CFC1EEA0C0FF2D14EEA0A
:100CC0000C0E00F804E010460023C6E88F3F87F3BF
:100CD0001088984207DBF8BD0023C6E88F3F87F3F2
:100CE00010884FF0FF300029F5D00698FFF782FFFB
:100CF0004FF0FF30E8E700BF03220220044A1078DB
:100D0000431CDBB2182B28BF10231370704700BFA1
:100D1000020800204FF0E022936843F000539360F4
:100D2000704700BF0021044B03F12002C3E88F1F6E
:100D300001339342FAD17047F82102204FF0E023AB
:100D40004FF08032C3F80024C3F80424C3F8082409
:100D5000C3F80C24C3F81024C3F81424C3F81824CF
:100D6000C3F81C24C3F82024C3F82424C3F828247F
:100D7000C3F82C24C3F83024704700BF012300F0CF
:100D80001F029340400941B1800000F1604000F52E
:100D90006140C0F8803103607047024A203042F859
:100DA0002030704700E100E0F8B50D46EFF3108702
:100DB00072B6124ED6E8CF2F0123002AFAD1C6E828
:100DC000423F002AF6D1BFF35F8F0D4B00F11004B4
:100DD0009B680C4A53F82430934203D0994201D0C7
:100DE00000F0E6FF064B9B6843F82450BFF35F8F8B
:100DF0000023C6E88F3F87F31088F8BD0122022048
:100E000000ED00E01D0100102DE9F04F81468B46FA
:100E1000164683B0EFF3108372B6DFF8D0A10093CB
:100E2000DAE8CF1F01230029FAD1CAE8413F00299F
:100E3000F6D1BFF35F8F664B93F90040002CC0F2F0
:100E4000A080644D04EB440705EB870898F8061072
:100E500009F110091970604BBF009B6853F8290015
:100E60006300411B2F292FD95C49884240F0A480A0
:100E70001C445B4B02372F44043BDB1BC3F34A0388
:100E80006FEAC3434FF421416FEAD34325F824109E
:100E900005EB840463804BF60153A380FF2348F0E5
:100EA0000100E671C4F808B0A3714B4B9B6843F88E
:100EB0002900BFF35F8F0023CAE88F3F009B83F3B5
:100EC000108803B0BDE8F08F20F0010E9EF80710E7
:100ED000B1422ED84FF42143EB53414BB91C294466
:100EE000043B04375B1A2F44AEF10401C91BC1F364
:100EF0004A043C49C3F34A030B432143A8F80410B6
:100F00003949A8F802304AF6AA2073465B1B5B41B8
:100F10005843000D88F8076088F80600C8F808B044
:100F200048F00100CEF80010BFE7D179B1422ED9C8
:100F300096469EF906C00CEB4C02BCF1000F05EB87
:100F40008202F2DA4BF601510EF10402A8F1040715
:100F5000BF1AC7F34A076FEAC7476FEAD7478EF849
:100F6000064003EB0408204C05EB8803AEF8047040
:100F700045F82840998083F806C0DE71C3F808B0B0
:100F800093E700F015FF124B93F9004059E77246C2
:100F900032F8041F490514D44915023102EB41010E
:100FA00001916FF00701C91B019F491B3944C1F32F
:100FB0004A0141F46041C9E7019300F0F9FE019B49
:100FC00056E701F5FF1101F5FF511F31E4E700BFBE
:100FD000DB2202200408002000ED00E01D010010CB
:100FE0003408002000E0FFFF014880470122022072
:100FF0002DE9F04F83B0EFF3108A72B6714ED6E848
:10100000CF2F0123002AFAD1C6E8423F002AF6D1A9
:10101000BFF35F8F6C4B00F110089B686B4A53F86D
:101020002850954245D08D420C4650D0684FEB1B5E
:101030002F2B3ED801214FEA50194FEA890909F1B7
:10104000604909F5614900F01F0301FA03F0D9F87E
:101050000030C9F8800000EA030BBFF35F8FEFF3A5
:101060000581C9B2002934D0884505D0CDE90010EA
:1010700000F09EFEDDE9001025F0010EDEF808C04C
:10108000644505D189E0D3F808C0644531D09E4657
:101090009EF9062002EB4203002A07EB8303F2DAF3
:1010A000644561D0BBF1000F20D0C9F88001C9F8B8
:1010B0000000454B9B6843F82850BFF35F8F002327
:1010C000C6E88F3F8AF3108803B0BDE8F08F15465D
:1010D000EFE725F0010EDEF808C06445D8D19EF98F
:1010E00006407346002C08DA154646E0C9F8800031
:1010F000DFE793F90640002C37DB04EB440C07EBE9
:101100008C0C9CF80710DCF80820D9719A609CF9C7
:1011100006206100002A9A713DDBBCF804E05FEA1A
:101120004E5E05D50EF5FF1E0EF5FF5E0EF11F0E8D
:101130006FF0070C0A194FEA6E5E920002EB4E0246
:1011400008323A44ACEB030C6244C2F34A026FEA41
:10115000C2426FEAD2429A801E4B21441A7807EBB2
:1011600081011C708A719DE77346D9B9FF228EF800
:1011700006204BF60152AEF80420164C4AF6AA227D
:1011800094F800C01946C91B49414A43120D83F81F
:1011900006C0227086E7104ADDE79EF906407346D6
:1011A000002CAADA0D4A0E4CD21A083AC2F30A31C0
:1011B0006FEA01516FEA115144EA5202DA809980D4
:1011C00070E700BF0122022000ED00E01D010010C9
:1011D00004080020DB22022001BDFFFF3E080020A2
:1011E00000F8FFFFF0B5EFF30585EDB2EFF3108CDB
:1011F00072B62649D1E8CF2F0123002AFAD1C1E8DF
:10120000423F002AF6D1BFF35F8F214E40F0010E1E
:10121000B4684AF6AA2354F825701E4A0446A41A54
:10122000644163431B0D77455BB21BD092F90640C6
:101230009C421CD092F912409C4223D092F91E404D
:101240009C4221D092F92A409C4208BF03240FD02F
:10125000114A0024157813708571C1E88F4F8CF303
:101260001088F0BDB2680D4C42F82540F0E700242C
:1012700004EB440402EB8402FF2494714BF6015406
:101280009480E5E70124F3E70224F1E7012202203C
:1012900000ED00E004080020DB2202201D01001008
:1012A000014B0B4403607047F821022070B5104CCD
:1012B000104DAC420ED2FF26236863B1FFF71EFD2E
:1012C00001462046FFF7ECFFA680BFF35F8F08348E
:1012D000AC42F1D370BDFFF711FD01462046FFF788
:1012E000DFFF2671BFF35F8F0834AC42E4D370BDDB
:1012F0005C090020640900200D4B1A68EFF310818F
:1013000072B6D2E8CFCF0120BCF1000FF9D1C2E80C
:101310004C0FBCF1000FF4D1BFF35F8F00221B68AC
:10132000C3E88F2F81F3108840BF00200021704751
:10133000D0220220000000002DE9F04F2DED028B9D
:1013400085B0EFF30583DBB2103B9A0818BF01228A
:101350004FF0010103F0030B18BFAF4DAF4B08BFB7
:10136000AF4D0BEB820253F8226001FA0BF205F548
:1013700041539FEDA78B01925A602FE0B3881C0464
:1013800040F19380B379002B40F0DD80B6F908205E
:10139000002AC0F21E81736902EB420203EBC20312
:1013A000D3E90247B7F1FF3F08BFB4F1FF3F0ED0CA
:1013B00005EB8B01AB6A0A69D21AE31A934205D393
:1013C00001232A6A03FA0BF3134200D10C61284669
:1013D00000F0CCFBA042B941C0F2FB80B6F9083066
:1013E000019A002B0093EA63C8DBD6F8148003EB64
:1013F0004309284608EBC907D7E9024A00F0B6FBC3
:10140000A04271EB0A01B9DBBAF1000FC0F2C38050
:10141000D7E90431834A934200F0ED807A88B6F927
:10142000080092B242EA0040984702460B4652EA50
:10143000030100F0B080002B80F2D180B4EB020EEB
:101440006AEB030A38F93930C7E902EA002B95DB69
:10145000716903EB430201EBC202D2E90270BE459F
:101460007AEB000C4FEA430288DBB4462CF8083FC5
:1014700006E003EB430001EBC0005A00D0E9027024
:10148000BE451A447AEB000001EBC20404DB31F9DB
:101490003230A446002BECDA28F83930009BACF847
:1014A0000030B3881C043FF56DAF3369EFF3108251
:1014B00072B6D3E8CF0F01210028FAD1C3E8401F4C
:1014C0000028F6D1BFF35F8F4FF6FF74B08800237A
:1014D000316900B2B480C1E88F3F82F3108898422E
:1014E000FFF650AF0746A946746906F1080807EBF6
:1014F000470E04EBCE03D3E90250B6F90830C446D8
:10150000002B13DBB246009704E034F936309446E2
:10151000002B09DB03EB430604EBC602D2E90271A0
:10152000BD4270EB0101F0DA5646009FACF8007046
:1015300034F93E7024F83E30002FD8DAB3794D46A6
:10154000002B3FF423AF0023B371B6F9083006F146
:101550000808581C3DD01A46776903E08046591C9C
:101560003FF416AF03EB430107EBC100B0F802C034
:101570001C461CF4004F9E4637F93130EED09442A1
:1015800080ED028B05D0A8F80030328927F8312091
:1015900034817246E3E738F8393033813369EFF349
:1015A000108272B6D3E8CF0F01210028FAD1C3E828
:1015B000401F0028F6D1BFF35F8F7388316928F888
:1015C0003930009B73800023C1E88F3F82F310887D
:1015D000D4E640BF05B0BDEC028BBDE8F08F2846D5
:1015E000CDE9022300F0C2FA029A039B10EB020E2F
:1015F00043EB010A26E708460B6902919847002849
:10160000C9D00299D1E9002311E700BFAFF30080F0
:10161000FFFFFFFFFFFFFFFF00800B40A82202201B
:1016200000000B40391300102DE9F84F364C2569A6
:101630002DB1BDE8F84F0A213448FFF731BEDFF87D
:10164000E4800321404600F07FFA0326C4F80C80B2
:10165000FFF754FB4FF0504C2D4B26700344236191
:10166000DCF800300F216370636961801D834FF0E7
:101670000405A3F878504FF00505A3F890504FF0FB
:101680000605A3F8A8504FF007050E214FF6FF728C
:1016900008274FF00A0EA3F8C0504FF001094FF091
:1016A0000C0C4FF0020B4FF0090A0D204FF00B0508
:1016B000A3F868111749A280A3F808E1A160A3F874
:1016C00048B0A3F8F0A0A3F82051A3F838C1A3F8BC
:1016D0005001A3F83090A3F86060A3F8D8701A8086
:1016E0000D4B3046C8F820700C49DC60FFF75CFBFE
:1016F00049463046FFF742FB094B0A211F64034865
:10170000BDE8F84FFFF7CCBD4C080020D0220220E6
:10171000F8210220FFFF1000A82202203913001038
:1017200000200B4000000B40004870474C08002090
:101730000146F0B50069EFF3108772B6D0E8CF5FCD
:101740000124002DFAD1C0E8454F002DF6D1BFF39A
:101750005F8FB1F902E04C690EEB4E0CBEF1000F49
:101760004FEACC05086904EBCC0C3CDB665B4E8091
:101770000026C0E88F6F87F31088BCF80200CCE920
:1017800002230130C0F30E00012838BF0120059B61
:10179000ACF80200CCF81030069B40EA0E40CCF8C2
:1017A00014300B69EFF3108272B6D3E8CFCF012764
:1017B000BCF1000FF9D1C3E84C7FBCF1000FF4D1AC
:1017C000BFF35F8F8B886353A1F804E00B69C3E814
:1017D0008F6F82F310880122CB68097803F50153DB
:1017E0008A405A60F0BD0023C0E88F3F87F310881D
:1017F0004FF0FF30F0BD00BF03464089B0EB214FF2
:1018000037DD58690A1402EB420210B500EBC20042
:101810001C69EFF3108C72B6D4E8CFEF0122BEF151
:10182000000FF9D1C4E84E2FBEF1000FF4D1BFF381
:101830005F8F428889B292B28A4207D000221B6928
:10184000C3E88F2F8CF31088002010BD42F40042B3
:1018500042800121002218699971C0E88F2F8CF312
:1018600010881C78DA68084602F50153A1405960D7
:1018700010BD0020704700BF2DE9F04182B0064640
:1018800000F07CF94FF47A7304464FF0FF306FF0AC
:101890000042E6FB0341A04272EB01033ABF04465B
:1018A00015460D46A61F45F1FF37B44275EB0703F9
:1018B0003CBF0026374600F061F9301A67EB0101A2
:1018C000012871F1000106DA2046294602B0BDE880
:1018D000F04100F05DB900F051F9864267EB01017B
:1018E00000290ADB0021174B3246009316483B467D
:1018F0000191FFF71DFF0130E6D04FF0000C134AB5
:101900001349536A9F4204D8906AB042DCD29F4286
:10191000DAD10B68EFF3108072B6D3E8CF8F5FF0A7
:10192000010EB8F1000FF8D1C3E848EFB8F1000F8D
:10193000F3D1BFF35F8F0B68C3E88FCF80F31088BC
:1019400020BFDEE7F91200104C08002000000B4019
:10195000D02202202DE9F04306460D4683B0EFF376
:101960000584E4B23CB12D4B5A6AAA421CD2002035
:1019700003B0BDE8F0832A4FD7F80C9097F80080A9
:10198000484600F0F3F808F1040859F828301B1A0B
:10199000301A65EB0101984271F1000110DB20BFA4
:1019A0001E4B5A6AAA42E2D314BF012400249B6A48
:1019B000B34234BF204644F0010003B0BDE8F083D9
:1019C00000F0DCF8864265EB0101002914DB154BC1
:1019D0003846CDE9003432462B46FFF7A9FE011EFA
:1019E0000ADD0E4B5A6AAA4216D39B6AB34211D340
:1019F0000B48FFF701FFB6E7084B5C6AAC42B6D371
:101A0000641B18BF01249B6AB34234BF204644F0D4
:101A10000100ADE7AA42EBD120BFE9E700000B408F
:101A20004C080020F91200102DE9F0410446DDE9D0
:101A3000071552EA030072D0002B16461F4673DBCF
:101A40000698C5E900232861AC60696100F096F84A
:101A50004FF0FF326FF00043801947EB01078242DD
:101A600073EB07013CBF1F4610462369EFF310825A
:101A700072B6D3E8CF6F0121002EFAD1C3E8461F1A
:101A8000002EF6D1BFF35F8FB4F90210666901EB47
:101A9000410300294FEAC30CD4F8108006EBC303BE
:101AA00046DB36F80CE0A4F802E04FF0000EC8E880
:101AB0008FEF82F310885A88C3E902070132C2F31C
:101AC0000E02012A38BF01221E485A805D6118614A
:101AD00042EA01422369EFF3108072B6D3E8CF8F58
:101AE0000127B8F1000FF9D1C3E8487FB8F1000F22
:101AF000F4D1BFF35F8FA38826F80C30A18023694F
:101B0000C3E88FEF80F3108801202178E36800FAA2
:101B100001F103F501535960EA60BDE8F081012647
:101B2000002732463B468BE7564263EB430787E785
:101B30000020C8E88F0F82F310884FF0FF32EA6070
:101B4000BDE8F0813913001010B4054B054C064A6E
:101B5000A04214BF1846581C5DF8044BFFF762B84A
:101B60003822022000800B408C2F04100346416A6B
:101B70000A46986A596A8A42FAD17047034B596AF1
:101B80000A46986A596A9142FAD1704700000B40A0
:101B9000074A536A9942FCD8994207D1044B02E0A4
:101BA0005A6A914202D19A6A9042F9D8704700BFAE
:101BB00000000B4000EB400C4FEA8C0C0CF1804C09
:101BC0000CF5803CF0B51646DCF80420051FB2F594
:101BD000803F38BF4FF48032EDB238BFCCF80420DC
:101BE000012D2AD94FF40067254C0CF5405217609F
:101BF00054F82020B2B9DCF80020012D82EA461208
:101C000002F0E0020CF5805632602AD94FF40061F0
:101C100044F820304FF480330CF500521160CCF8BA
:101C20000430F0BD6769B7FBF2FE0EF1010E0EEB5A
:101C30004E0EBEF1030EFCD2DDE70129D2D1032402
:101C40000CF540521460DCF80820D207FBD5DCF814
:101C500000200B4C82EA461202F0E0020CF580569E
:101C600032600122DCF800504D4005F0030535607C
:101C700002FA01F1DCF808200A42FBD0C6E700BFF7
:101C80003C220220014B53F8200070473C220220E6
:101C900070B4039D04682D0345EA03451B4B002CDB
:101CA000B3FBF1F3B2FBF3F61FDB194A194B904279
:101CB00014BF4FF480424FF40042174C1A6003F5F2
:101CC00080531A60A36832EA0303FBD1212200F596
:101CD00040530433016086601A600268002AFCDA0F
:101CE0000822C5601A6070BC7047036803F03F03A8
:101CF0008B42DAD18368C3F30B03B342D5D1C368F7
:101D000003F4EE23AB42D0D1EDE700BF001BB700D8
:101D1000008005400020024000000240012300EB4B
:101D20004000800000F1804000F5841041600360B5
:101D3000704700BF0023DB8A002242E800F2520213
:101D400001D4102118470421184700BF034AD2F8D4
:101D50002838002BFBD0BFF35F8F704700000E4088
:101D60000021044B044ABFF35F8F43F8041B9342E6
:101D7000F9D170470C080E402C080E4010B44FF4F7
:101D80008D704FF42A64064A064B07491460D060F0
:101D900019605368002BFCDA5DF8044B704700BFF4
:101DA0000080044000A0044000B0FA00704700BF6B
:101DB00008B50148FEF71EFFB02F041038B5054CDA
:101DC000054DAC4204D254F8043B9847AC42FAD3D8
:101DD00038BD00BFF02E0410302F041010B4074897
:101DE000074C084B084A094904601A608B6832EABC
:101DF0000303FBD15DF8044B704700BF0020024095
:101E00007F3BEFEF00300240F6FFF303000002409B
:101E1000044BDB6CB3F5004F03D14FF48022024B2F
:101E2000DA64704700001150002011504FF0E0229A
:101E3000044BD2F8881D0B43C2F8883D10EE3004E5
:101E4000704700BF030330006FF06041044B054A48
:101E500019609368DB4333F06043FAD1704700BFE9
:101E6000003002400000024010B545F25320FFF759
:101E700061FFBDE8104003460420184710B545F245
:101E80005320FFF757FFBDE81040034601201847D5
:101E9000FEF748BF10B5054B054C4FF48872184645
:101EA000A16840F063FFA06010BD00BF00000020EB
:101EB00000ED00E0002370B52B4C82B0C4F88430F4
:101EC000FFF75CFF0122294BDA63636C012BFCD125
:101ED0000321264A244B11639C6B012CFCD1022662
:101EE000052521460523224A22480096FFF7D0FE09
:101EF00021462B46204A21480095FFF7C9FE0022C3
:101F0000042031461E4BFFF755FE2146284600228D
:101F10001C4BFFF74FFE0022082011461A4BFFF71B
:101F200049FE002209201146174BFFF743FE00220D
:101F300006201146134BFFF73DFE0022114B0720F0
:101F40001146FFF737FE0420FFF79CFE00240F4BDD
:101F5000A3FB0035AD0CE0B229460134FFF7DEFEED
:101F6000062CF8D102B070BD0000014000300140E5
:101F7000002F685900000540008C8647008005400E
:101F8000001BB70080D1F008006CDC0283DE1B432D
:101F900086B003B451FC0804CDE9020151FC0904E8
:101FA000CDE9040151EC0A04CDE9060103BCF04778
:101FB000BDE800504EEC00C4BDE800504EEC01C43A
:101FC000BDE800504EEC02C400BD000000B5FFF7B4
:101FD000DFFF02E010FE30F4F8D441EC100443ECD3
:101FE000112400EE010410EE010480EE200451ECF7
:101FF0001004704700B5FFF7CBFF02E010FE30F48D
:10200000F8D441EC100443EC112400EE010410EE6E
:10201000210480EE200451EC3004704700B5FFF736
:10202000B7FF02E010FE30F4F8D410B541EC100414
:1020300043EC112451EC040453EC0524A0FB024CA6
:102040005FF0000EE0FB03CEE1FB02CE4CEC20443F
:102050000024E1FB03E444EC30E480EE200451EC86
:102060005004BDE81040704700B5FFF791FF02E053
:1020700010FE30F4F8D441EC100443EC112451EC80
:102080002104A0FB01126FEA820252FB100052FBF6
:1020900012F252FB1000A0EBD07C53EC04245CFB4A
:1020A00013F153EC1524A1FB022001FB030053ECB8
:1020B0004424A2EB000050FB1CF24FEA111312EB78
:1020C000017043EBE27140EA515020EA915020F058
:1020D000070053EC7524A0FB023C53EC752400FB75
:1020E00003CC01FB02CC53EC0424ACEB824C40EA61
:1020F0005C70A0F1010041EC400480EE200451EC42
:102100007004704700B5FFF743FF02E010FE30F4A3
:10211000F8D440EC700400EE010410EE210480EECF
:10212000200451EC3004704700B5FFF731FF02E0A6
:1021300010FE30F4F8D440EC600400EE010410EE20
:10214000210480EE200451EC3004704700B5FFF705
:102150001FFF02E010FE30F4F8D441EC800400EEE2
:10216000010410EE010480EE400410EE13047047E9
:1021700000B5FFF70DFF02E010FE30F4F8D441EC9B
:10218000800400EE010410EE010480EE400410EE25
:102190003304704700B5FFF7FBFE02E010FE30F499
:1021A000F8D441EC100443EC112400EE010410EECD
:1021B0003004C0F30070704700B5FFF7E9FE02E09D
:1021C00010FE30F4F8D443EC102441EC110400EE7E
:1021D000010410EE30F48CBF01200020704700BFD6
:1021E00000B5FFF7D5FE02E010FE30F4F8D443EC62
:1021F000102441EC110400EE010410EE30F42CBF69
:1022000001200020704700BF00B5FFF7C1FE02E0CB
:1022100010FE30F4F8D441EC100443EC112400EE2D
:10222000010410EE30F42CBF01200020704700BFE5
:1022300000B5FFF7ADFE02E010FE30F4F8D441EC3B
:10224000100443EC112400EE010410EE30F48CBFB6
:1022500001200020704700BF9A4238BF8854704761
:10226000704700BF2DE9F04F83B09946DDE90DAB13
:102270000F9B884611469A07074616D1DA453AD28F
:102280000C460D46ABEB0A060E4422464B46414631
:1022900020200134B847B442F7D12946BAF1000FE3
:1022A00008D1204603B0BDE8F08F0C46BAF1000F0C
:1022B00010D00E4655460C9B2E449A440191721B39
:1022C0004B46013D41461AF8010D3446B847002DF2
:1022D000F5D101990F9B9B07E3D5651AAB45E0D972
:1022E00022464B46414620200135B8475D4504F162
:1022F0000104F5D3D5E70C46BAF1000FD9D1D0E7E8
:102300002DE9F04F0F9FDDF8248017F0020F0A9C93
:102310009DF82CA00E9DDDE90C9644D1F5BBB4428E
:1023200041D207F0010B04F1FF3C4FF0300EC444E2
:1023300004E00134A6420CF801EF01D9202CF8D1B9
:10234000BBF1000F00F08880A5422CD904F1FF3CBE
:102350004FF0300EC44404E00134AC420CF801EFFD
:1023600021D0202CF8D117F0100F0ED017F4806F69
:1023700054D1A64263D0A54261D0B9F1100F50D01C
:10238000B9F1020F56D0202C29D12024CDE90B57CA
:10239000CDE90984BDE8F04FFFF764BF17F0010BEA
:1023A00034D1B442BFD317F0100F1ED017F4806F92
:1023B000E3D1002CDDD1B9F1100F63D0B9F1020FD8
:1023C00077D0302488F800400124BAF1000F11D1F1
:1023D0007E0748D52B2608F804600134D6E7264648
:1023E00001344FF0300C08F806C0202CCDD0BAF1E3
:1023F000000FEDD02D2608F804600134CDE90B570D
:10240000CDE90984BDE8F04FFFF72CBFBAF1000F0A
:1024100030D0B44205F1FF3585D395E7B9F1100FFF
:10242000B3D1BE063BD5202CAFD0582608F80460A7
:102430000134A8E7202CA8D02646013407E0661E08
:10244000B9D0B9F1100F36D0B9F1020FC9D14FF0A0
:10245000620C08F806C096E717F0100FC5D017F405
:10246000806F86D089E73E0790D5202608F8046063
:1024700001348BE717F00C0F00D0013DB442FFF49C
:1024800052AF61E7BC0612D4782488F800403024AB
:1024900088F801400224BAF1000F99D0AAE7202C55
:1024A0003FF473AF782608F8046001346BE75824D2
:1024B000EBE76224E9E717F0200FA4F1020C04D047
:1024C0004FF0580E08F80CE08BE74FF0780E08F844
:1024D0000CE086E700B9704701F024BB0000000063
:1024E0002DE9F04F97B09DED207BDDE9225B07469B
:1024F000884651EC170B249C99460C920B460246D9
:102500008DED047B0794FFF749FE002840F0F4812D
:10251000DDE904014FF0FF326FF48013FFF750FE46
:10252000002840F01B81DDE904014FF0FF32AC4B85
:10253000FFF782FE002840F0EE80DDE90401A4A34D
:10254000D3E90023FFF778FE002840F0D380DDE9CF
:102550000401A1A3D3E90023FFF732FE002840F0D5
:10256000C980DDE9040100220023FFF729FE0028CD
:1025700040F0E88023460D9013F4806F08BF0625D5
:1025800030212B460EAAA5F1200605E0013BB342FF
:1025900002F8011B00F09381092BF7D81E46ED1AB3
:1025A000DDE90401FFF7D6FD8E4B044603EBC603BD
:1025B00093ED007B8DED087BFFF7A8FD02460B46EF
:1025C000DDE90401FFF71AFDDDE90823FFF72AFD25
:1025D00002460B46CDE90A23FFF7CEFD8246FFF700
:1025E000A7FD02460B46DDE90A01FFF707FD02469B
:1025F0000B46CDE90A2300227B4BFFF71DFE002886
:1026000000F0FE800AF1010A5046FFF791FD0246F4
:102610000B46DDE90801FFF7E7FD10B14FF0000AB6
:102620000134002E00F0FD80681E0EABDFF8CCC137
:1026300018440FE0ACFB0A21C90801EB8102AAEBA8
:1026400042023032BAF1090F00F8012F40F21C812A
:102650008A461D46202D05F1010306F1FF36E9D11A
:102660002025691E0EAB6148194410E080FB04620E
:10267000C3EBA20303EB8302A4EB420404F1300298
:1026800001351C4601F8012F002B00F0EB80202DB6
:102690004FEAE473EAD1079B03F00303012B18D13F
:1026A000BBF1000F15D00D9B002B00F00A810BF140
:1026B000FF3BBBF1200F0CD96B1E0EA930220B443F
:1026C00005E001355D4503F8012F80F0D180202D14
:1026D000F7D1079B0EACCDE902B341464B463846D5
:1026E0000C9A01950094FFF7BDFD8246504617B045
:1026F000BDE8F08F079B9DED047BCDE923B34146F8
:102700004B4638460C9A8DED207B229517B0BDE8DC
:10271000F04F00F045B9610723464CBF0423032363
:102720004146219338464B46079A48BF304CCDE985
:1027300022B258BF2F4C0C9A209417B0BDE8F04F2E
:10274000FFF790BDDDE9042300200021FFF756FCD0
:102750000123CDE904010D9323460DE723469C0791
:1027600040F0AA80BBF1040F40F2A6800C9B1D46EE
:102770001C1F04EB0B0A2A464B464146202001351C
:10278000B847AA45F7D155461B4C261F14F8010D32
:102790002A464B464146B847B44205F10105F5D1FA
:1027A000079B0AF1040A9807A0D50C9CAAEB040326
:1027B0009B459BD952464B46414620200AF1010ACF
:1027C000B847AAEB04035B45F4D38FE7AFF300806F
:1027D0000000000065CDCD410000000065CDCDC1F9
:1027E000FFFFEF7FF83704100000E03F6766666682
:1027F000FC2F04100430041010300410CDCCCCCCCD
:102800000022DDE90A01634BFFF7DAFC00287FF4C0
:1028100008AFBAF1000F6AD10AF1010A002E7FF465
:1028200003AF2046FFF772FC02460B46DDE90401C8
:10283000FFF7E4FB02460B46CDE904230022554B8B
:10284000FFF7BEFC00287FF40CAFDDE90401002295
:10285000504BFFF7F1FC00287FF403AF013424F064
:102860000104FEE6079B03F00303012B00F08280C6
:10287000202D3FF42EAF0D9B7BB32D220DEB0503D6
:1028800083F83820013524E7202B3FF4E9AE0EAA67
:1028900015441E44302204E0202B05F8012F3FF49C
:1028A000DFAE9E4203F10103F6D12E220DEB0603AB
:1028B00083F83820751CD4E6DDF830A063E72025C6
:1028C0006EE6079B13F00C0F50D00BF1FF3BAB45AE
:1028D0003FF6F2AE202D3FF4FCAE079B5A0701D520
:1028E0002B22CBE71B077FF5F4AE2022C6E71AF0B8
:1028F000010F3FF496AE8FE7A60734D1BBF1030F6B
:1029000031D90C9B1D46DC1E04EB0B0A2A464B46B4
:10291000414620200135B8475545F7D155461E4C54
:10292000E61E14F8010D2A464B464146B847A6421A
:1029300005F10105F5D1079B0AF1030A9D077FF513
:10294000D5AE0C9CAAEB04039B457FF6CFAE524656
:102950004B46414620200AF1010AB847AAEB04037E
:102960009B45F4D8C2E6DDF830A0D7E7AB453FF68B
:10297000A3AEAEE6BBF1000F3FF47AAF0D9B002B88
:102980009FD00BF1FF3B5D45FFF496AE202D7FF409
:1029900074AF9EE60000E03F0B3004100000000022
:1029A0002DE9F04F9FB02A9EDDE928450746934662
:1029B0000891099322462B46204629460E96DDE9CA
:1029C0002BA6FFF7EBFB002840F0BE8020462946EF
:1029D0004FF0FF32784BFFF72FFC002840F0B48017
:1029E000204629464FF0FF326FF48013FFF7E8FBD3
:1029F000002840F0A9802046294600220023FFF746
:102A0000DFFB002840F0D581CDE90A45DDE90A2346
:102A10009046994606F4006216F480630F92139371
:102A200040F0A18058EA090340F0CA80002A40F033
:102A3000E38106230E9316F00202109240F0D48137
:102A40005346042B38BF04230C920422043B1292F9
:102A50000F932046294600220023FFF7B1FB0028F0
:102A600040F0F3819DED0A7B0F9B5A4603930E9B2A
:102A70008DED007B029326F4006304933846099B96
:102A80000899FFF72DFD024616F0200F099B0899C3
:102A90000CBF6520452002F10108B8470C9A129B33
:102AA00016AC5D1E82EAE273A3EBE273D10F00263F
:102AB00022469946DFF804C101E0202E10D0CE4610
:102AC000ACFB0930C00800EB8003A9EB43033033B3
:102AD000BEF1090F814606F1010602F8013BECD870
:102AE0000523002006930A2305950094099D089C60
:102AF0004246CDE90330CDE901612B4621463846F7
:102B0000FFF7FEFB109A8046D2B1A0EB0B06B24550
:102B100016D90BEB06022B46214620200136B8477A
:102B2000B245F6D80BF1FF335344CBF10102A3EBCE
:102B300008034244924538BF002308F10108984435
:102B400040461FB0BDE8F08F5A463846CDE92845CB
:102B5000CDE92BA60E9C099B08992A941FB0BDE8CD
:102B6000F04FFFF7BDBC58EA09032BD1002A3FF410
:102B700062AF00230C930E9B0C9A934200F3B98131
:102B80004FF000082046294600220023FFF718FBDB
:102B9000002840F013819DED0A7B26F4006646F480
:102BA00080668DED287B5A463846CDE92A8A099BF6
:102BB00008992C96D2E700BFFFFFEF7FCDCCCCCC9D
:102BC00006230E93C9F30A50A0F2FF30FFF79EFAD6
:102BD000C1A3D3E90023FFF725FAC1A3D3E900235A
:102BE000FFF7F8F9C9F31309CDE90C0149F07F515A
:102BF00040460022B24B41F44011FFF7FFF9A4A375
:102C0000D3E90023FFF70EFA02460B46DDE90C017B
:102C1000FFF7E0F9FFF79EFA0C90FFF777FA9EA313
:102C2000D3E9002380468946FFF7FCF90022A54B33
:102C3000FFF7D0F9FFF78EFA034649464046129354
:102C400097A3D3E90023FFF7EDF980461298894650
:102C5000FFF75CFA94A3D3E90023FFF7E3F90246F8
:102C60000B4640464946FFF7C9F902460B468046E7
:102C70008946FFF7D7F942464B46CDE91001404659
:102C80004946FFF7A7F90022CDE91401DDE910015B
:102C90008D4BFFF7EDF900228C4BFFF79BF90246B5
:102CA0000B46DDE91001FFF7E3F90022884BFFF73F
:102CB00091F902460B46DDE91001FFF7D9F94246CA
:102CC0004B468046894600204FF08041FFF796F939
:102CD00002460B4640464946FFF77CF902460B4642
:102CE000DDE91401FFF7C4F900227A4BFFF772F90E
:102CF000129B002203F2FF3C4FEA0C53FFF792F9BC
:102D000080468946DDE90A0142464B46FFF758FAFC
:102D100050B10C9B4046013B49460C9300226B4B43
:102D2000FFF7A6F9804689460C9A43466332C62AC5
:102D300006F00202109249460F9A2CD8002A5ED063
:102D4000042212920B433FF416AFDDE90A0158A3A7
:102D5000D3E90023FFF75CFA48B1DDE90A0156A385
:102D6000D3E90023FFF72CFA00287FF404AF0E9B71
:102D7000002B50D0139A002A7DD0013B0E93129B5A
:102D80009A4505D9109B002B00F0AE8002231093CA
:102D900000230F9344E022BBBAF1050F4FD906F090
:102DA0000203002B49D105231293AAF105030F93C7
:102DB0003AE005F100430A940B9327E626F40066F7
:102DC00046F4806638462C96DDE90A67344607F1FA
:102DD00000455A46CDE92A8ACDE92845099B08993C
:102DE000BCE605221292ADE700230222CDE90F32A4
:102DF00004220C9312922CE64FF00508C2E6BAF1B9
:102E0000040F1FD9109B002B78D104231293AAF131
:102E100004030F9304E0129B9A4531D80E9B0F9345
:102E20000C9B002B3FF415AEDDE90A0142464B46F0
:102E3000FFF71EF9CDE90A010BE6022310930523E3
:102E40001293F1E704231293EAE7DDE90A45A0466D
:102E50000F9B05F1004903930E9B5A46029326F4FB
:102E6000006304933846CDE90089099B0899FFF770
:102E700037FB024608E6129B9A4544D80F92CFE7EB
:102E8000109B8BB30E9B0F9302231093C8E700BFD8
:102E900061436F63A787D23F71A379094F930A40BB
:102EA0001655B5BBB16B0240EF39FAFE422EE63F34
:102EB0002D431CEBE2361A3F0000000080842E41B7
:102EC0000000F83F0000E03F00002C4000002440DC
:102ED000000018400000F03FFB799F501344D33F9F
:102EE000B3C8608B288AC63F129BAAEB03030F93DB
:102EF00096E7A3EB020808F1FF3843E60423129398
:102F0000022310938CE7109B002BEDD002230F922D
:102F1000109385E72DE9F04F9BB0249C954D0A94C2
:102F2000954CB1F1000A18BF834625601878934C80
:102F3000914608BFA3460993002800F093824FF002
:102F400000080AE042464B46514608F10108D847BE
:102F5000099B1878002800F0CE80099B252803F1F2
:102F600001030993EED11C460023224612F8010BFF
:102F7000A0F1200110290AD8DFE801F04009093C3E
:102F80000909090909090938093409093000A0F1BA
:102F900030010929099440F28A802A2800F0F08043
:102FA00000252E2800F096800026A0F16801122945
:102FB0002DD8DFE811F049012C0043012C00380125
:102FC0002C002C002C002C002C002C002C002700A6
:102FD0002C002C002C002C002C002700144643F061
:102FE0000103C2E7144643F00203BEE7144643F070
:102FF0000403BAE7144643F01003B6E7144643F05F
:103000000803B2E70999487843F4807301326728CE
:1030100009927ED8242840F2C180A0F12502422ADC
:1030200000F2BC80DFE812F05001BA00BA00BA002A
:10303000BA00BA00BA00BA00BA00BA00BA00BA00C0
:10304000BA00BA00BA00BA00BA00BA00BA00BA00B0
:10305000BA00BA00BA00BA00BA00BA00BA00BA00A0
:10306000BA00BA00BA00BA00190137011901BA0052
:10307000BA00BA00BA00BA00BA00BA00BA00BA0080
:10308000BA00BA00BA00BA00BA00BA00BA00BC016D
:10309000BA00BA00BA00BA00BA00BA00BA00BA0060
:1030A000BA00BC015801BC01190137011901002502
:1030B00000E0013205EB850500EB45051078303D59
:1030C000A0F130010929F4D92E28099202F1010258
:1030D0007FF46AAF099943F4806348781146A0F100
:1030E0003006092E40F221812A2800F02F81099212
:1030F0000026013259E74446C14501D809F1FF389D
:103100004B46424651460020D84720461BB0BDE8FA
:10311000F08FA0F16902D2B20F2A3FD8012149F203
:1031200041079140394040F0F3800A2A3DD0072AF8
:1031300034D10A9D55F8042B002A00F0138143F086
:10314000210012AB1F460B9303E0202900F01481ED
:103150001A4602F00F042346092C94BF303337334C
:103160000F2A07F8013B01F101014FEA1213ECD8D5
:1031700002E100BF152F001074220220612200100E
:103180000A99099851F8045B4078002DCDE909218E
:10319000BCBF43F002036D42013202E742464B4698
:1031A000514608F10108D847D2E60A99002E51F895
:1031B000047B18BF3246387808BF4FF0FF32002832
:1031C00000F07B83BC18A4463A4604E012F8014F95
:1031D000002C00F03F819445F8D16446E41B5A0569
:1031E00040F12281B44228BF344613F0020300F0BC
:1031F00088820223CDE90A5142461D46464408E032
:103200004B465146D84717F8010F08F1010810B195
:1032100042464645F4D12B460B990A9D002B40F0BF
:1032200041810A9194E6099948786C287FF4ECAEC4
:103230000A46887843F440730332E8E6099943F478
:10324000007348780132E2E609994878682800F06E
:10325000038143F080030132D9E6672800F0D9806A
:10326000472800F0DC80452800F0DB80CDE90353DF
:103270000A9B0296073323F007031C464246F4E8F4
:1032800002674B4651465846CDE900670A94FFF75E
:1032900087FB80465CE6462808BF43F02003CDE963
:1032A00003530A9B0296073323F007031C4642464A
:1032B000F4E802674B4651465846CDE900670A9448
:1032C000FFF70EF9804643E642464B46514625201D
:1032D00008F10108D8473BE60A9A990702F104046D
:1032E00008F1010640F1C68010784B46424651462F
:1032F000D847012D88BFA84440F2BD8132464B46D5
:10330000514620200136D8474645F7D10A941FE69A
:103310006F2800F0818040F24882782800F0908188
:103320000A2723F01003BC4641E0002606EB860680
:1033300000EB4600A0F1300611F8010FA0F13002B9
:10334000092AF3D90A46099101322EE6DDE909215D
:1033500051F8046B9078023209920A91013226EA00
:10336000E67622E623F0100013F4806240F021009C
:103370003FF4E7AE12AB0B930B9B06900093082330
:103380001020059300234246CDE9023001914B46BF
:10339000514658460496FEF7B3FF0A958046D7E596
:1033A000582862D0622840F08F800227BC4613F470
:1033B000806000F0DD8023F00D0313F4007240F014
:1033C00081810A990F1D13F4807140F037825C06E9
:1033D0000A9A40F13B811278002A40F04E8123F096
:1033E0001003002800F04981114612AA0B92CDE982
:1033F0000553CDE903C601910B9B42460093002380
:103400005146029358464B46FEF77AFF0A9780468C
:103410009EE543F4006329E70827BC46C7E743F469
:10342000006343F0200321E713F0020300F08E81D4
:1034300002230A951E460D4642464B465146D84742
:1034400017F8010F08F101080028F5D12946334685
:103450000A9DE3E6D41BC2E60A46887843F0C0031F
:103460000332D4E50446804646E6102743F02003A5
:10347000BC469CE7012D40F2F880464608F1FF3734
:103480002F4432464B46514620200136D847BE4293
:10349000F7D10A9B3246187851464B46D847A84484
:1034A0000A9455E54646A5427FF6BBAEA844A8EB74
:1034B00004080C4632464B46514620200136D84778
:1034C0004645F7D12146ACE613F4806200F0BB809C
:1034D0004FF4806223F0110C1CF400770A9B4AD150
:1034E0001CF4807003F1040440F034811CF0400FA0
:1034F00040F0A3801CF0800F00F0D381B3F90010DE
:1035000081EAE177A7EBE177BFB2CB0F002900F0AA
:1035100056813A4612A90F46DFF8D8E30B910A9379
:103520000C9501E020280FD01546AEFB0213DB08F6
:1035300003EB8301A2EB41013031092D1A4600F162
:10354000010007F8011BEDD80A9B0C9DCDE9055C35
:10355000CDE9010304960B9B424600930A23514692
:10356000039358464B46FEF7CBFE0A948046EFE4A1
:1035700023F00C0321E7073323F00703194608461D
:103580005B6850F8081BDF0F0A9051EA030062D114
:10359000002A40F09F811346114612AACDE90C750E
:1035A00000201546CDE90E68DFF848E30B9201E0F4
:1035B00020282DD05A1842F10002AEFB027828F0E4
:1035C000030707EB9807D21B1E469B1A61F1000701
:1035D0000C464FF0CC3101FB03F10EFB0711A3FBAE
:1035E0000E731944052307F00108A8FB03389B1844
:1035F0000A2E03F130034FEA570774F1000405F86F
:10360000013B00F1010047EAC1734FEA5101CFD2FB
:10361000DDE90C75DDE90E680B9B424600930A2339
:10362000CDE9055CCDE90107049603934B4651466D
:103630005846FEF765FE80468AE419780F4664E72F
:103640001027BC46B3E623F0100C45E71C064CBF20
:1036500012881268C0E60A46191E01DB13469CE771
:103660005242134661EB410197E7134651461878E1
:1036700042464B46D847B04648E613F0200F14BFE9
:103680004120612012ACA6460B940A93A0F10A04D3
:103690000C9502E0202912D02A46B2FBFCF50CFB67
:1036A0001520C3B2092803F130008ABF1B19C3B229
:1036B000DBB262450EF8013B01F10101EAD20A9B3F
:1036C0000C9D94E60A9A073222F00702516852F8DC
:1036D000084B8E460A9254EA010276D123F0100379
:1036E000002872D00022114612AA0B92CDE9055390
:1036F0000B9B424600930023CDE903C60191029340
:1037000094E7A54298BF01347FF674AD4FF480630F
:10371000CDE90A7505EB08021F460D46141B42460B
:103720004B465146202008F10108D847A045F6D164
:103730003B460A9F294638780B9D6C1C00283FF4B5
:1037400070AD002B3FF475AE002353E5A542DFD8E2
:1037500001346EE61968CB0F002900F0A88081EAD9
:10376000E172A2EBE17212A90846DFF888E10B9141
:103770000A930C9501E0202F0FD01546AEFB0213E3
:10378000DB0803EB8301A2EB41013031092D1A461E
:1037900007F1010700F8011BEDD80A9B0C9DCDE94C
:1037A000055CCDE901730496D5E6692823F0100C79
:1037B00040F08C8013F480623FF48EAE88E6002ADD
:1037C0003FF4A8AE12AA0B92C0E613F0200F14BF6C
:1037D00041226122002012A90A3ACDE90E68CDE902
:1037E0000C35CDF844B006468846754693460B9195
:1037F000CDF840C003E0202E17D004460D462946E0
:103800003A46002320463FF057FBD2B2092A02F184
:10381000300388BF02EB0B03BC42DBB275F100053D
:1038200008F8013B06F10106E5D23146DDE90C3529
:10383000DDE910CBDDF83C800E9E57E70A99096858
:1038400051B923F0100338B112A90B91CDE90553FA
:10385000CDE903C60192CFE513F0200F14BF41203C
:10386000612012ACA6460B940A93A0F10A040C95B1
:1038700002E0202A12D02946B1FBFCF50CFB151002
:10388000C3B2092803F130008ABF1B19C3B2DBB2EF
:1038900061450EF8013B02F10102EAD20A9B0C9D40
:1038A000D4E7196881EAE177A7EBE1772DE6002AF2
:1038B0003FF459AF12AA0B9271E713F480640DD054
:1038C00013F0020412D004464646ECE50A2763468C
:1038D000BC466CE512AB00200B939DE613F002038F
:1038E0007FF4E0AD002D7FF413AF9AE4002D7FF458
:1038F0000DAF96E4CDCCCCCC30B594468E46054683
:103900001C4683B029467246634600940248FFF77E
:1039100001FB03B030BD00BF5922001010B5094BA8
:1039200084B01C684CB1034600914FF0FF3203A9EC
:103930000548A047012004B010BD00F035F920462D
:1039400004B010BD74220220D524001000BEFDE793
:1039500008B5FFF7FBFF00BF38B5064C064DFEF774
:103960002DFAAC4204D254F8043B9847AC42FAD347
:1039700038BD00BF302F0410342F041003680846F0
:10398000114618472DE9F0411546427D0746884605
:10399000002A46D0002D1DDD0B780A2B23D0012DE7
:1039A0004FF0000C18D04646012416F8012F21468E
:1039B0000A2A04F1010422D0A542F6D165450BDCA8
:1039C00008EB050313F8013CA3F10D03B3FA83F3ED
:1039D0005B093B75BDE8F0813B68A5EB0C0108EB8A
:1039E0000C009847ECE7037D002BD8D10368022137
:1039F0000F489847012DE3D04FF0010CD3E716F89C
:103A0000013C0D2BD8D08C4508EB0C00A1EB0C0130
:103A100001DA3B689847022105483B689847A4466D
:103A2000CAE7294640463B68BDE8F041184700BF59
:103A3000483804102DE9F04782B00D4691461C46E7
:103A40000646FEF79BF84FF0FF3C6FF000472E4A0A
:103A5000821841F10003944577EB03013CBF6246B5
:103A60003B462A483FF038FA6B1C804640D00CB3E6
:103A7000274F284B1C68B4B1B9F1000F1CD1DFF8F7
:103A80009C9001E0246974B12368002BFAD0D9F826
:103A900000300BB19C42F5D120462A463146B8474A
:103AA0002469002CF0D1B8F1000F26D1284602B0CD
:103AB000BDE8F087184FDCE74FF00A0ADFF85C90AA
:103AC00002E02469002CEED02368002BF9D0D9F84D
:103AD00000300BB1A342F4D12A4631462046B84704
:103AE000012220460DF107018DF807A0B847E8E74D
:103AF00030463FF0B1F90546B9E704483FF0E0F938
:103B0000284602B0BDE8F08740420F005C09002063
:103B1000853900106C2202207D39001070220220AD
:103B200000207047F0B583B006468DF80700FEF719
:103B300025F84FF0FF356FF00044174A821841F125
:103B40000003954274EB03013CBF23462A46134809
:103B50003FF0C2F9124B07461C689CB1114D01E0C1
:103B600024697CB12368002BFAD02B680BB19C42EE
:103B7000F6D1204601220DF10701FFF703FF24696A
:103B8000002CEFD117B9304603B0F0BD03483FF029
:103B900097F9304603B0F0BD40420F005C090020A9
:103BA0006C2202207022022038B504463FF054F9FE
:103BB000012305461A4620462946FFF73BFF084BDE
:103BC0001C682CB163682BB198472469002CF9D18B
:103BD000284638BD2469002CF4D1284638BD00BFE2
:103BE0006C220220384B2DE9F047984214BF4FF465
:103BF00000234FF4802307460E46344D344C354A9B
:103C00002B602360956833EA0505FBD10620FEF79B
:103C100039F839464FF0020A51F804EF4FEAD65905
:103C20004FEA462C01F5405863464A4654460EEA90
:103C30000A0EC8F800A008E013EB0C0304F102041C
:103C400042EB0902B4F5807F03D0984275EB020A7B
:103C5000F2D24FF48073C4EB042201E0012B30D088
:103C6000B0FBF2FC66459946A2EB040203F1FF3378
:103C7000F4D209FB04F91D023C6102243B460326F1
:103C80003A6801F500516A4007F5805C02F47F4212
:103C9000CCF80020C1F800E07D68C8F8004053F877
:103CA000242B254082F0070202F0CF0203F50053D7
:103CB000CCF80020B0FBF9F00D601E600C60BDE890
:103CC000F087A146D8E700BF00000840002002406E
:103CD00000300240000002402DE9F04706464FF058
:103CE000020906200D46FDF7CDFF31464C4651F83E
:103CF000047F86464FEAD55C680201F5405A4FF0D2
:103D00000008034662462740CAF8009007E01B18E7
:103D100004F1020442EB0C02B4F5807F03D09E450F
:103D200078EB0209F3D24FF48073C4EB042201E074
:103D3000012B1AD0BEFBF2FCAC451846A2EB0402E4
:103D400003F1FF33F4D904FB00F01B023461326845
:103D500001F50051534003F47F4306F5805633606C
:103D6000BEFBF0F00F60BDE8F08720460023EDE7D2
:103D700010B5054C82B001460F2300220094034881
:103D8000FCF77CFF02B010BD14300410D8220220D2
:103D9000F0B5477892BB8478BB0003F03C0304F095
:103DA0003F0543EA9413194C14F805C014F803E0D6
:103DB000ACF1FF06AEF1FF05B6FA86F6B5FA85F569
:103DC00076096D090078030103F03003800843EAA7
:103DD0001713E35C245CFF2C18BFFF2B0CBF0120E2
:103DE0000020304310D17DB943EA04130B701AB997
:103DF0004CEA0E1C81F801C00020F0BD0025034CE8
:103E00002E46AE46AC46DDE70120F0BD4C3804102E
:103E1000C31C5B1A062B2DE9F04138D90B680360EF
:103E20004B6843608B688360CB68C3600422284F73
:103E30002849C368103012F003084FEA920CC3F30C
:103E40000726C3F307454FEA13645FFA83FE02F1C6
:103E5000010212D1434617F80CC011F806804E5DDE
:103E60008CEA080C0D5D6CF3070311F80E4066F345
:103E70000F2365F3174364F31F6350F810CC2C2A0B
:103E80008CEA030340F8043BD5D1BDE8F0810B7800
:103E900003704B7843708B788370CB78C3700B7949
:103EA00003714B7943718B798371CB79C3710B7A31
:103EB00003724B7A43728B7A8372CB7AC3720B7B19
:103EC00003734B7B43738B7B8373CB7BC373ADE7F4
:103ED0008C3804109839041038B515460446FFF79D
:103EE00097FF28686968AA68EB68C4F8B000C4F84E
:103EF000B410C4F8B820C4F8BC3038BD2DE9F04F78
:103F00009BB00B4612901392002A00F0098301F136
:103F1000100C043102460D916FF00F01E24603F1DF
:103F200008040A930E94903803F10C04B032CB1AB3
:103F30000F94119014921593129F1AF8102C97F861
:103F4000A0305AF8100C82EA03090AF8109C97F87E
:103F5000A1301AF80F2C1AF80C4C53400AF80F3CF9
:103F60001AF80E2C049397F8A2305AF80C1C534000
:103F70000AF80E3C1AF80D2C079397F8A33016ADEB
:103F800053400AF80D3C0B9397F8A4301AF80B2C09
:103F90005C400AF80C4C97F8A53053400AF80B3CEB
:103FA0001AF80A2C019397F8A6305A400AF80A2CFE
:103FB00097F8A73008921AF8092C82EA03060AF843
:103FC000096C5AF8082C5AF8043C1AF8088C0FC5EA
:103FD00097F8A8301AF8075C88EA03080AF8088CF2
:103FE00097F8A9301AF8060C5D400AF8075C97F8B4
:103FF000AA301AF8052C58400AF8060C97F8AB308E
:104000001AF804CC5A400AF8052C97F8AC300297FD
:104010008CEA030C0AF804CC97F8AD301AF8037C4C
:104020001AF8021C5F40129B0AF8037C93F8AE302A
:104030001AF801EC5940129B0AF8021C93F8AF30B1
:104040008EEA03030C93DDE901BE6A4B13F8099075
:104050001B5D684C019314F80830029314F80C307F
:104060004FF0000C03932346E45D1F46049BFF5C66
:10407000604B13F80B30DDF828B004935D4B5D5DA9
:10408000595C05951D46185C079B0690EB5C0898EB
:1040900007932B46285CAD5D1E469A5C08900992FA
:1040A0001A460C9BF65C63460C960B9E12F8068033
:1040B00066466246019869F3070C60F307060298AA
:1040C00064F30F2C60F30702039867F30F2660F385
:1040D0000703049861F3174660F30F22059860F315
:1040E0000F23069860F3174C079865F31F6C60F375
:1040F00017420898CBF800C060F31743099868F39B
:104100001F6360F31F660D9806600C9E0E9866F3A1
:104110001F6202600F9A019813609EF8903089EA3E
:1041200003020AF8102C9EF891300B9284EA0302E5
:104130000AF80F2C9EF892300C92069A5A400AF810
:104140000E2C9EF8933006925D400AF80D5C9EF8A6
:104150009430109580EA030501950AF80C5C9EF8EE
:1041600095C0099C87EA0C0C0AF80BCC9EF8967057
:1041700002984F400AF80A7C9EF89750049A6540CE
:104180000AF8095C9EF89840079944400AF8084CE0
:104190009EF89990039882EA09090AF8079C9EF80C
:1041A0009A204A400AF8062C9EF89B3086EA0301C2
:1041B0000AF8051C02919EF89C10059B41400AF8E4
:1041C000041C9EF89D0058400AF8030C9EF89E605F
:1041D000089B5E400AF8026C9EF89F3088EA030351
:1041E00003930AF8013C119B9E4500F01481CDE930
:1041F00007AE01E0983804109BF801909BF800800E
:104200009BF802C04FEAD9179BF803E04FEAD81198
:1042100007EB47074FEADC1601EB410107EBC70745
:1042200087EA49074FEADE1501EBC10106EB4606B6
:1042300081EA4801C7F3C01006EBC60605EB450549
:1042400086EA4C064CB2C1F3C01205EBC505C9B2F3
:1042500000EB400085EA4E050691C6F3C01379B223
:1042600002EB420200EBC00080EA4100029102EB47
:10427000C202C5F3C01103EB430382EA4402019476
:10428000C0F3C01A74B203EBC30301EB410183EA2C
:10429000440303940AEB4A0A6CB201EBC10181EAC0
:1042A0004401059304940AEBCA03C2F3C01488EADC
:1042B000090A88EA0C08F6B289EA0C098EEA0808AD
:1042C00004EB44048EEA090986EA0808EDB256B206
:1042D0008EEA0A0E04EBC40485EA0E0E84EA460454
:1042E000069D8CEA0A0C0694019C85EA0C0CD2B25D
:1042F000059D664082EA0E02029C4FFA80FEFFB2E4
:1043000087EA0907C5F3C01583EA4E09059B84EACD
:104310000E0E05EB4505039CC0B280EA0C004FFA77
:1043200083FAC1F3C01C05EBC50585EA4A050CEB11
:104330004C0C84EA0A0ADBB2049C7B400CEBCC0CEC
:10434000CFB249B28CEA410C6140069C87EA08076B
:104350005FFA84F888EA070788EA020264B288EA0A
:1043600000085FFA89F074404340EEB2424080EAB0
:1043700008007340774070405FFA8CF673404FFA44
:1043800089F96DB24FFA8CFC6340774089EA0E09D7
:1043900085EA0A058CEA010C56408BF8003080EA69
:1043A0000C00079B87EA09076E408BF803008BF827
:1043B00001708BF802600BF1040B9B457FF41CAF7E
:1043C0009A4613F8037C13F8075C13F80BBC13F838
:1043D0000F3CDDF820E004931AF80E3C1AF8060CA6
:1043E00007931AF80A3C1AF8021C08931AF80D3CB5
:1043F0001AF8096C0B931AF8013C1AF8052C1AF8F4
:10440000109C1AF80C4C1AF8088C1AF804CCAEF16F
:10441000100E0C9319E605960A9EDDF804E010369E
:104420000A960D9E019210360D960E9E0B9A10362E
:104430000E960F9EDDF808B010360F96129E029170
:1044400096F8B0600C997240129E0AF8102C96F8FB
:10445000B120049051400AF80F1C96F8B22006983B
:10446000DDF8408050400AF80E0C96F8B320039B0C
:1044700088EA02080AF80D8C96F8B4200AF1100AAE
:104480008EEA020E0AF81CEC96F8B5208CEA020CB3
:104490000AF81BCC96F8B620049857400AF81A7C04
:1044A00096F8B720019F55400AF8195C96F8B82095
:1044B000029D54400AF8184C96F8B92016AC89EAC7
:1044C00002090AF8179C96F8BA2057400AF8167C99
:1044D00096F8BB208BEA02020AF8152C96F8BC204D
:1044E00055400AF8145C96F8BD2050400AF8130CA9
:1044F00096F8BE20059850400AF8120C96F8BF2096
:1045000053400AF8113C159B03EB0A050FCC149C91
:1045100020606160A260E360139BAB423FF60CAD8C
:104520001BB0BDE8F08F00BF70B50F20FCF73EFB5D
:104530004FF001040F2344EC443044EC4030112090
:10454000FCF734FB0420FCF731FB05211120FCF7BC
:1045500097FA05210420FCF793FA4FF00005112388
:1045600045EC4430042345EC44301220FCF71EFB9C
:10457000122044EC44000121FCF782FA1320FCF7DE
:1045800015FB132044EC44000121FCF779FA1020BC
:10459000FCF70CFB102045EC440002260C4C0121DA
:1045A000FCF76EFA20460B49FFF71CFB0A4B6268CA
:1045B0005E602368094D0A4983F0C703324003F067
:1045C000CF032B600A20BDE870404A60FDF754B964
:1045D0000000084040420F00003008400010084032
:1045E0000020084000B583B08DF807008DF8061054
:1045F00000BF00BF00BF0F234FF0000242EC40306D
:1046000000BF00BF00BF4FF050425368DB03FCD433
:104610000DF1070101230C4A0C483EF059FC01231F
:10462000094A0DF1060109483EF052FC00BF00BFE7
:1046300000BF0F234FF0010242EC403000BF00BF2B
:1046400000BF03B05DF804FBDA220220000008403E
:1046500000B583B08DF8070000BF00BF00BF0F2377
:104660004FF0000242EC403000BF00BF00BF4FF0EF
:1046700050425368DB03FCD401230A4A0DF10701C1
:1046800009483EF025FC00BF00BF00BF0F234FF0DC
:10469000010242EC403000BF00BF00BF03B05DF834
:1046A00004FB00BFDA22022000000840FF2310B5FF
:1046B000014382B08DF807308DF8061000BF00BFAF
:1046C00000BF0F234FF0000242EC403000BF00BF9C
:1046D00000BF4FF050435C6814F48034FBD10DF1FF
:1046E000060101230C4A0D483EF0F2FB012321464E
:1046F0000DF1070209483EF0F3FB00BF00BF00BF09
:104700000F234FF0010242EC403000BF00BF00BF5A
:104710009DF8070002B010BDDA2202200000084018
:1047200030B561F03F0183B0044615468DF807109F
:1047300000BF00BF00BF0F234FF0000242EC40302B
:1047400000BF00BF00BF4FF050425368DB03FCD4F2
:1047500001220E480DF107013EF0C6FB4DB1254484
:10476000224601230021094801343EF0B9FBAC4246
:10477000F6D100BF00BF00BF0F234FF0010242EC93
:10478000403000BF00BF00BF03B030BD0000084094
:104790000023062110B582B01A468DF806308DF838
:1047A000071000BF00BF00BF0F2342EC403000BF26
:1047B00000BF00BF4FF05042546814F48034FBD166
:1047C0000DF106010123A74AA7483EF081FB012312
:1047D000A44A0DF10701A4483EF07AFB00BF00BFD8
:1047E00000BF0F22012343EC402000BF00BF00BFE9
:1047F0008DF806302E238DF8073000BF00BF00BFB4
:1048000044EC402000BF00BF00BF4FF0504254684E
:1048100014F48034FBD10DF106010123914A924832
:104820003EF056FB01238F4A0DF107018E483EF002
:104830004FFB00BF00BF00BF0F224FF0010343EC4E
:10484000402000BF00BF00BF02218DF807408DF857
:10485000061000BF00BF00BF44EC402000BF00BFF7
:1048600000BF4FF05042546814F48034FBD10DF176
:10487000060101237B4A7C483EF02AFB0123794A4A
:104880000DF1070178483EF023FB00BF00BF00BFD9
:104890000F224FF0010343EC402000BF00BF00BFD8
:1048A000032307218DF806308DF8071000BF00BFE5
:1048B00000BF44EC402000BF00BF00BF4FF050429B
:1048C000546814F48034FBD10DF106010123654ACC
:1048D00065483EF0FDFA0123624A0DF10701624886
:1048E0003EF0F6FA00BF00BF00BF0F224FF00103F9
:1048F00043EC402000BF00BF00BF042354218DF8CB
:1049000006308DF8071000BF00BF00BF44EC402008
:1049100000BF00BF00BF4FF05042546814F4803411
:10492000FBD10DF1060101234E4A4F483EF0D0FA6B
:1049300001234C4A0DF107014B483EF0C9FA00BF74
:1049400000BF00BF0F224FF0010343EC402000BF27
:1049500000BF00BF05233D218DF806308DF80710FC
:1049600000BF00BF00BF44EC402000BF00BF00BF3D
:104970004FF05042546814F48034FBD10DF106011D
:104980000123384A38483EF0A3FA0123354A0DF195
:10499000070135483EF09CFA00BF00BF00BF0F2260
:1049A0004FF0010343EC402000BF00BF00BF0623CF
:1049B000FF218DF806308DF8071000BF00BF00BF43
:1049C00044EC402000BF00BF00BF4FF0504254688D
:1049D00014F48034FBD10DF106010123214A224851
:1049E0003EF076FA01231F4A0DF107011E483EF002
:1049F0006FFA00BF00BF00BF0F224FF0010343EC6E
:104A0000402000BF00BF00BF07218DF807408DF890
:104A1000061000BF00BF00BF44EC402000BF00BF35
:104A200000BF4FF05042546814F48034FBD10DF1B4
:104A3000060101230B4A0C483EF04AFA0123094AB9
:104A40000DF1070108483EF043FA00BF00BF00BF68
:104A50000F224FF0010343EC402000BF00BF00BF16
:104A6000082103E0DA220220000008408DF8074008
:104A70008DF8061000BF00BF00BF44EC402000BF0F
:104A800000BF00BF4FF05042546814F48034FBD193
:104A90000DF106010123A84AA8483EF019FA0123A6
:104AA000A54A0DF10701A5483EF012FA00BF00BF6C
:104AB00000BF0F224FF0010343EC402000BF00BFB6
:104AC00000BF09218DF807408DF8061000BF00BF18
:104AD00000BF44EC402000BF00BF00BF4FF0504279
:104AE000546814F48034FBD10DF106010123924A7D
:104AF00092483EF0EDF901238F4A0DF107018F48EE
:104B00003EF0E6F900BF00BF00BF0F224FF00103E7
:104B100043EC402000BF00BF00BF0A218DF80740D2
:104B20008DF8061000BF00BF00BF44EC402000BF5E
:104B300000BF00BF4FF05042546814F48034FBD1E2
:104B40000DF1060101237C4A7C483EF0C1F90123A6
:104B5000794A0DF1070179483EF0BAF900BF00BF6C
:104B600000BF0F224FF0010343EC402000BF00BF05
:104B700000BF0B2308218DF806308DF8071000BF09
:104B800000BF00BF44EC402000BF00BF00BF4FF09B
:104B90005042546814F48034FBD10DF10601012316
:104BA000654A66483EF094F90123634A0DF1070116
:104BB00062483EF08DF900BF00BF00BF0F224FF0EA
:104BC000010343EC402000BF00BF00BF0C218DF863
:104BD00007408DF8061000BF00BF00BF44EC402026
:104BE00000BF00BF00BF4FF05042546814F480343F
:104BF000FBD10DF1060101234F4A50483EF068F900
:104C000001234D4A0DF107014C483EF061F900BF08
:104C100000BF00BF0F224FF0010343EC402000BF54
:104C200000BF00BF0D2321218DF806308DF807103D
:104C300000BF00BF00BF44EC402000BF00BF00BF6A
:104C40004FF05042546814F48034FBD10DF106014A
:104C50000123394A39483EF03BF90123364A0DF128
:104C6000070136483EF034F900BF00BF00BF0F22F5
:104C70004FF0010343EC402000BF00BF00BF0E23F4
:104C80006B218DF806308DF8071000BF00BF00BF04
:104C900044EC402000BF00BF00BF4FF050425468BA
:104CA00014F48034FBD10DF106010123224A23487C
:104CB0003EF00EF90123204A0DF107011F483EF096
:104CC00007F900BF00BF00BF0F224FF0010343EC04
:104CD000402000BF00BF00BFD0238DF806208DF814
:104CE000073000BF00BF00BF44EC402000BF00BF42
:104CF00000BF4FF05042546814F48034FBD10DF1E2
:104D0000060101230C4A0D483EF0E2F801230A4A4D
:104D10000DF1070109483EF0DBF800BF00BF00BFFE
:104D20000F224FF0010343EC402000BF00BF00BF43
:104D300010235C2104E000BFDA22022000000840BA
:104D40008DF806308DF8071000BF00BF00BF44EC9F
:104D5000402000BF00BF00BF4FF05042546814F421
:104D60008034FBD10DF106010123A74AA7483EF08C
:104D7000AFF80123A44A0DF10701A4483EF0A8F8BA
:104D800000BF00BF00BF0F224FF0010343EC4020E3
:104D900000BF00BF00BF112304218DF806308DF83D
:104DA000071000BF00BF00BF44EC402000BF00BFA1
:104DB00000BF4FF05042546814F48034FBD10DF121
:104DC00006010123904A91483EF082F801238E4A61
:104DD0000DF107018D483EF07BF800BF00BF00BF1A
:104DE0000F224FF0010343EC402000BF00BF00BF83
:104DF000122305218DF806308DF8071000BF00BF83
:104E000000BF44EC402000BF00BF00BF4FF0504245
:104E1000546814F48034FBD10DF1060101237A4A61
:104E20007A483EF055F80123774A0DF1070177489B
:104E30003EF04EF800BF00BF00BF0F224FF001034D
:104E400043EC402000BF00BF00BF132322218DF898
:104E500006308DF8071000BF00BF00BF44EC4020B3
:104E600000BF00BF00BF4FF05042546814F48034BC
:104E7000FBD10DF106010123634A64483EF028F896
:104E80000123614A0DF1070160483EF021F800BF9F
:104E900000BF00BF0F224FF0010343EC402000BFD2
:104EA00000BF00BF1423F8218DF806308DF80710DD
:104EB00000BF00BF00BF44EC402000BF00BF00BFE8
:104EC0004FF05042546814F48034FBD10DF10601C8
:104ED00001234D4A4D483DF0FBFF01234A4A0DF1A5
:104EE00007014A483DF0F4FF00BF00BF00BF0F229A
:104EF0004FF0010343EC402000BF00BF00BF15236B
:104F000044218DF806308DF8071000BF00BF00BFA8
:104F100044EC402000BF00BF00BF4FF05042546837
:104F200014F48034FBD10DF106010123364A3748D1
:104F30003DF0CEFF0123344A0DF1070133483DF027
:104F4000C7FF00BF00BF00BF0F224FF0010343ECBB
:104F5000402000BF00BF00BF162307218DF8063098
:104F60008DF8071000BF00BF00BF44EC402000BF19
:104F700000BF00BF4FF05042546814F48034FBD19E
:104F80000DF106010123204A20483DF0A1FF012335
:104F90001D4A0DF107011D483DF09AFF00BF00BFFB
:104FA00000BF0F224FF0010343EC402000BF00BFC1
:104FB00000BF17218DF807408DF8061000BF00BF15
:104FC00000BF44EC402000BF00BF00BF4FF0504284
:104FD000546814F48034FBD10DF1060101230A4A10
:104FE0000A483DF075FF0123074A0DF10701074804
:104FF0003DF06EFF00BF00BF00BF0F224FF0010366
:1050000043EC402004E000BFDA2202200000084008
:1050100000BF00BF00BF18238DF806308DF80730A1
:1050200000BF00BF00BF44EC402000BF00BF00BF76
:105030004FF05042546814F48034FBD10DF1060156
:105040000123A74AA7483DF043FF0123A44A0DF1DD
:105050000701A4483DF03CFF00BF00BF00BF0F2286
:105060004FF0010343EC402000BF00BF00BF1923F5
:105070002E218DF806308DF8071000BF00BF00BF4D
:1050800044EC402000BF00BF00BF4FF050425468C6
:1050900014F48034FBD10DF106010123904A9148AC
:1050A0003DF016FF01238E4A0DF107018D483DF0BA
:1050B0000FFF00BF00BF00BF0F224FF0010343EC02
:1050C000402000BF00BF00BF1A23BF218DF806306B
:1050D0008DF8071000BF00BF00BF44EC402000BFA8
:1050E00000BF00BF4FF05042546814F48034FBD12D
:1050F0000DF1060101237A4A7A483DF0E9FE0123C9
:10510000774A0DF1070177483DF0E2FE00BF00BF8E
:1051100000BF0F224FF0010343EC402000BF00BF4F
:1051200000BF1B2343218DF806308DF8071000BF08
:1051300000BF00BF44EC402000BF00BF00BF4FF0E5
:105140005042546814F48034FBD10DF10601012360
:10515000634A64483DF0BCFE0123614A0DF107013A
:1051600060483DF0B5FE00BF00BF00BF0F224FF00A
:10517000010343EC402000BF00BF00BF1C230921F6
:105180008DF806308DF8071000BF00BF00BF44EC5B
:10519000402000BF00BF00BF4FF05042546814F4DD
:1051A0008034FBD10DF1060101234D4A4D483DF0FD
:1051B0008FFE01234A4A0DF107014A483DF088FE5F
:1051C00000BF00BF00BF0F224FF0010343EC40209F
:1051D00000BF00BF00BF1D23B5218DF806308DF83C
:1051E000071000BF00BF00BF44EC402000BF00BF5D
:1051F00000BF4FF05042546814F48034FBD10DF1DD
:1052000006010123364A37483DF062FE0123344A45
:105210000DF1070133483DF05BFE00BF00BF00BF4A
:105220000F224FF0010343EC402000BF00BF00BF3E
:105230001E2387218DF806308DF8071000BF00BFB0
:1052400000BF44EC402000BF00BF00BF4FF0504201
:10525000546814F48034FBD10DF106010123204A77
:1052600020483DF035FE01231D4A0DF107011D4880
:105270003DF02EFE00BF00BF00BF0F224FF0010324
:1052800043EC402000BF00BF00BF1F236B218DF8FF
:1052900006308DF8071000BF00BF00BF44EC40206F
:1052A00000BF00BF00BF4FF05042546814F4803478
:1052B000FBD10DF106010123094A0A483DF008FE21
:1052C0000123074A0DF1070106483DF001FE00BF2A
:1052D00000BF00BF0F224FF0010343EC402003E06A
:1052E000DA2202200000084000BF00BF00BF2023D8
:1052F000FB218DF806308DF8071000BF00BF00BFFE
:1053000044EC402000BF00BF00BF4FF05042546843
:1053100014F48034FBD10DF106010123A64AA748FD
:105320003DF0D6FD0123A44A0DF10701A3483DF04D
:10533000CFFD00BF00BF00BF0F224FF0010343ECC1
:10534000402000BF00BF00BF2123B6218DF80630EA
:105350008DF8071000BF00BF00BF44EC402000BF25
:1053600000BF00BF4FF05042546814F48034FBD1AA
:105370000DF106010123904A90483DF0A9FD01235B
:105380008D4A0DF107018D483DF0A2FD00BF00BF21
:1053900000BF0F224FF0010343EC402000BF00BFCD
:1053A00000BF222310218DF806308DF8071000BFB2
:1053B00000BF00BF44EC402000BF00BF00BF4FF063
:1053C0005042546814F48034FBD10DF106010123DE
:1053D000794A7A483DF07CFD0123774A0DF10701B7
:1053E00076483DF075FD00BF00BF00BF0F224FF0B3
:1053F000010343EC402000BF00BF00BF2323EA218C
:105400008DF806308DF8071000BF00BF00BF44ECD8
:10541000402000BF00BF00BF4FF05042546814F45A
:105420008034FBD10DF106010123634A63483DF04E
:105430004FFD0123604A0DF1070160483DF048FD32
:1054400000BF00BF00BF0F224FF0010343EC40201C
:1054500000BF00BF00BF24232A218DF806308DF83D
:10546000071000BF00BF00BF44EC402000BF00BFDA
:1054700000BF4FF05042546814F48034FBD10DF15A
:10548000060101234C4A4D483DF022FD01234A4AC2
:105490000DF1070149483DF01BFD00BF00BF00BFF3
:1054A0000F224FF0010343EC402000BF00BF00BFBC
:1054B00025218DF807408DF8061000BF00BF00BF02
:1054C00044EC402000BF00BF00BF4FF05042546882
:1054D00014F48034FBD10DF106010123364A37481C
:1054E0003DF0F6FC0123344A0DF1070133483DF04D
:1054F000EFFC00BF00BF00BF0F224FF0010343ECE1
:10550000402000BF00BF00BF26231F218DF80630BA
:105510008DF8071000BF00BF00BF44EC402000BF63
:1055200000BF00BF4FF05042546814F48034FBD1E8
:105530000DF106010123204A20483DF0C9FC01235A
:105540001D4A0DF107011D483DF0C2FC00BF00BF20
:1055500000BF0F224FF0010343EC402000BF00BF0B
:1055600000BF272341218DF806308DF8071000BFBA
:1055700000BF00BF44EC402000BF00BF00BF4FF0A1
:105580005042546814F48034FBD10DF1060101231C
:10559000094A0A483DF09CFC0123074A0DF1070126
:1055A00006483DF095FC00BF00BF00BF0F224FF042
:1055B000010343EC402003E0DA220220000008400F
:1055C00000BF00BF00BF28218DF807408DF80610EE
:1055D00000BF00BF00BF44EC402000BF00BF00BFC1
:1055E0004FF05042546814F48034FBD10DF10601A1
:1055F0000123924A92483DF06BFC01238F4A0DF142
:1056000007018F483DF064FC00BF00BF00BF0F22C0
:105610004FF0010343EC402000BF00BF00BF29232F
:1056200059218DF806308DF8071000BF00BF00BF6C
:1056300044EC402000BF00BF00BF4FF05042546810
:1056400014F48034FBD10DF1060101237B4A7C4820
:105650003DF03EFC0123794A0DF1070178483DF009
:1056600037FC00BF00BF00BF0F224FF0010343EC27
:10567000402000BF00BF00BF2A237F218DF80630E5
:105680008DF8071000BF00BF00BF44EC402000BFF2
:1056900000BF00BF4FF05042546814F48034FBD177
:1056A0000DF106010123654A65483DF011FC012317
:1056B000624A0DF1070162483DF00AFC00BF00BFDD
:1056C00000BF0F224FF0010343EC402000BF00BF9A
:1056D00000BF2B233F218DF806308DF8071000BF47
:1056E00000BF00BF44EC402000BF00BF00BF4FF030
:1056F0005042546814F48034FBD10DF106010123AB
:105700004E4A4F483DF0E4FB01234C4A0DF107019E
:105710004B483DF0DDFB00BF00BF00BF0F224FF044
:10572000010343EC402000BF00BF00BF2C238121B8
:105730008DF806308DF8071000BF00BF00BF44ECA5
:10574000402000BF00BF00BF4FF05042546814F427
:105750008034FBD10DF106010123384A38483DF071
:10576000B7FB0123354A0DF1070135483DF0B0FB89
:1057700000BF00BF00BF0F224FF0010343EC4020E9
:1057800000BF00BF00BF2D2335218DF806308DF8F6
:10579000071000BF00BF00BF44EC402000BF00BFA7
:1057A00000BF4FF05042546814F48034FBD10DF127
:1057B00006010123214A22483DF08AFB01231F4AAA
:1057C0000DF107011E483DF083FB00BF00BF00BF85
:1057D0000F224FF0010343EC402000BF00BF00BF89
:1057E0002E2309218DF806308DF8071000BF00BF69
:1057F00000BF44EC402000BF00BF00BF4FF050424C
:105800005368DB03FCD40DF1060101230B4A0C485D
:105810003DF05EFB0123094A0DF1070108483DF008
:1058200057FB00BF00BF00BF0F234FF0010242EC47
:10583000403000BF00BF00BF02B010BDDA2202201E
:10584000000008402DE9F04383B000BF00BF0223F1
:105850004FF0000848EC403000BF00BF1F4C2378D9
:10586000DBB14FF001090134D4F81360D4F81750BC
:105870008DF8073000BF00BF032748EC407000BF21
:1058800000BF012216480DF107013DF02DFB86B93E
:10589000E5B9E37E1C34002BE6D100BF00BF022334
:1058A0004FF0010242EC403000BF00BF03B0BDE842
:1058B000F08300BF00BF49EC407000BF00BF084844
:1058C000324621463DF010FB002DE2D02846FBF782
:1058D000D3FFE37E1C34002BC6D1DEE76408002032
:1058E0000080084010B582B08DF8070000BF00BFEF
:1058F00002224FF0000343EC402000BF00BF00BF76
:1059000000BF032443EC404000BF00BF01220DF163
:10591000070106483DF0E8FA00BF00BF4FF0010361
:1059200043EC404000BF00BF02B010BD0080084003
:105930002DE9F04182B00C4615468DF8070000BFF6
:1059400000BF02264FF0000343EC406000BF00BFE1
:1059500000BF00BF4FF0030843EC408000BF00BF12
:1059600001220DF107010C483DF0BEFA00BF00BF57
:105970004FF0010747EC408000BF00BF06482A46B1
:1059800021463DF0B1FA00BF00BF47EC406000BFC8
:1059900000BF02B0BDE8F0810080084070B5022869
:1059A00082B042D0032846D0012838D04FF4A070EE
:1059B0004FF4F07148243622224B8DF80640C3E99B
:1059C00000018DF8072000BF00BF02244FF0000344
:1059D00043EC404000BF00BF00BF00BF032643ECC4
:1059E000406000BF00BF01220DF1070116483DF0E5
:1059F0007BFA00BF00BF4FF0010545EC406000BFDF
:105A000000BF01220DF106010F483DF06DFA00BF05
:105A100000BF45EC404000BF00BF02B070BD4FF476
:105A2000F0704FF4A0712824C5E74FF4A0704FF434
:105A3000F0718824BFE74FF4F0704FF4A071E824B0
:105A4000B9E700BFF80A0020008008402DE9F043C4
:105A5000504983B006465048FEF7C4F84F494E48B7
:105A6000FEF73AF901210C20FBF70AF80521022084
:105A7000FBF706F801210A20FBF702F801210B20B1
:105A8000FAF7FEFF0220FBF791F84FF0010802231E
:105A900048EC443048EC40300320FBF787F8032300
:105AA00048EC443048EC40300620FBF77FF84FF0DC
:105AB000060948EC449048EC409004210D20FAF788
:105AC000DFFF40F2CF72364B364D374CC5F80090B1
:105AD000C3F88820D3F8842034492240C1F88420B8
